:020000040800F2
:1000000000500020796A0008F5110008F711000877
:10001000F9110008FB110008FD11000800000000A4
:10002000000000000000000000000000915C0008DB
:10003000FF11000800000000315D0008755D000838
:10004000C16A0008C16A0008C16A0008C16A0008E4
:10005000C16A0008C16A0008C16A0008C16A0008D4
:10006000C16A0008C16A0008C16A0008C16A0008C4
:10007000C16A0008C16A0008C16A0008C16A0008B4
:10008000C16A0008C16A0008C16A0008C16A0008A4
:1000900001120008C16A0008C16A0008C16A0008AC
:1000A000C16A0008C16A0008C16A0008C16A000884
:1000B000C16A000811120008C16A0008C16A00087C
:1000C000C16A0008C16A0008C16A0008C16A000864
:1000D000C16A0008C16A0008C16A0008C16A000854
:1000E000C16A0008C16A0008C16A00080000000077
:1000F0000000000000000000000000000000000000
:0C01000000000000000000005FF808F1A3
:1001100081F0004102E000BF83F0004330B54FEAB8
:1001200041044FEA430594EA050F08BF90EA020F25
:100130001FBF54EA000C55EA020C7FEA645C7FEAB8
:10014000655C00F0E2804FEA5454D4EB5555B8BFDB
:100150006D420CDD2C4480EA020281EA030382EA4C
:10016000000083EA010180EA020281EA0303362DDE
:1001700088BF30BD11F0004F4FEA01314FF4801CB1
:100180004CEA113102D0404261EB410113F0004FC3
:100190004FEA03334CEA133302D0524263EB43037A
:1001A00094EA050F00F0A780A4F10104D5F1200E18
:1001B0000DDB02FA0EFC22FA05F2801841F1000173
:1001C00003FA0EF2801843FA05F359410EE0A5F147
:1001D00020050EF1200E012A03FA0EFC28BF4CF078
:1001E000020C43FA05F3C01851EBE37101F000452E
:1001F00007D54FF0000EDCF1000C7EEB00006EEB3B
:100200000101B1F5801F1BD3B1F5001F0CD34908C4
:100210005FEA30004FEA3C0C04F101044FEA44521B
:1002200012F5800F80F09A80BCF1004F08BF5FEAA2
:10023000500C50F1000041EB045141EA050130BD82
:100240005FEA4C0C404141EB010111F4801FA4F125
:100250000104E9D191F0000F04BF01460020B1FA7A
:1002600081F308BF2033A3F10B03B3F120020CDAB2
:100270000C3208DD02F1140CC2F10C0201FA0CF090
:1002800021FA02F10CE002F11402D8BFC2F1200CF5
:1002900001FA02F120FA0CFCDCBF41EA0C019040AB
:1002A000E41AA2BF01EB0451294330BD6FEA0404F4
:1002B0001F3C1CDA0C340EDC04F11404C4F12002DF
:1002C00020FA04F001FA02F340EA030021FA04F3F1
:1002D00045EA030130BDC4F10C04C4F1200220FA48
:1002E00002F001FA04F340EA0300294630BD21FA86
:1002F00004F0294630BD94F0000F83F4801306BF4C
:1003000081F480110134013D4EE77FEA645C18BF3F
:100310007FEA655C29D094EA050F08BF90EA020FD6
:1003200005D054EA000C04BF1946104630BD91EACE
:10033000030F1EBF0021002030BD5FEA545C05D1D1
:100340004000494128BF41F0004130BD14F5800410
:100350003CBF01F5801130BD01F0004545F0FE4184
:1003600041F470014FF0000030BD7FEA645C1ABFB9
:10037000194610467FEA655C1CBF0B46024650EAF0
:10038000013406BF52EA033591EA030F41F400211C
:1003900030BD00BF90F0000F04BF0021704730B5A2
:1003A0004FF4806404F132044FF000054FF0000177
:1003B00050E700BF90F0000F04BF0021704730B538
:1003C0004FF4806404F1320410F0004548BF40420D
:1003D0004FF000013EE700BF42004FEAE2014FEA62
:1003E00031014FEA02701FBF12F07F4393F07F4F3D
:1003F00081F06051704732F07F4208BF704793F040
:100400007F4F04BF41F40021704730B54FF4607452
:1004100001F0004521F000411CE700BF50EA010255
:1004200008BF704730B54FF000050AE050EA0102FE
:1004300008BF704730B511F0004502D5404261EB6E
:1004400041014FF4806404F132045FEA915C3FF4AF
:10045000D8AE4FF003025FEADC0C18BF03325FEA4C
:10046000DC0C18BF033202EBDC02C2F1200300FAFD
:1004700003FC20FA02F001FA03FE40EA0E0021FA22
:1004800002F11444BDE600BF4FF0FF3C06E000BFA0
:100490004FF0010C02E000BF4FF0010C4DF804CD0D
:1004A0004FEA410C7FEA6C5C4FEA430C18BF7FEACD
:1004B0006C5C1BD001B050EA410C0CBF52EA430CFB
:1004C00091EA030F02BF90EA020F0020704710F17B
:1004D000000F91EA030F58BF994208BF90422CBF0A
:1004E000D8176FEAE37040F0010070474FEA410C03
:1004F0007FEA6C5C02D150EA013C07D14FEA430C21
:100500007FEA6C5CD6D152EA033CD3D05DF8040B91
:10051000704700BF8446104662468C4619466346C3
:1005200000E000BF01B5FFF7B7FF002848BF10F19A
:10053000000F01BD4DF808EDFFF7F4FF0CBF0120DF
:1005400000205DF808FB00BF4DF808EDFFF7EAFF5B
:1005500034BF012000205DF808FB00BF4DF808ED16
:10056000FFF7E0FF94BF012000205DF808FB00BF0B
:100570004DF808EDFFF7CEFF94BF012000205DF895
:1005800008FB00BF4DF808EDFFF7C4FF34BF0120A2
:1005900000205DF808FB00BF4A0011D212F50012DE
:1005A00011D20DD56FF47873B3EB62520ED44FEACB
:1005B000C12343F0004343EA505323FA02F070474B
:1005C0004FF00000704750EA013002D14FF0FF3089
:1005D00070474FF00000704780F0004002E000BF1D
:1005E00081F0004142001FBF5FEA410392EA030F1E
:1005F0007FEA226C7FEA236C6AD04FEA1262D2EB68
:100600001363C1BFD218414048404140B8BF5B426C
:10061000192B88BF704710F0004F40F4000020F005
:100620007F4018BF404211F0004F41F4000121F01B
:100630007F4118BF494292EA030F3FD0A2F1010265
:1006400041FA03FC10EB0C00C3F1200301FA03F1A3
:1006500000F0004302D5494260EB4000B0F5000FC6
:1006600013D3B0F1807F06D340084FEA310102F185
:100670000102FE2A51D2B1F1004F40EBC25008BF37
:1006800020F0010040EA03007047490040EB000001
:1006900010F4000FA2F10102EDD1B0FA80FCACF130
:1006A000080CB2EB0C0200FA0CF0AABF00EBC2502F
:1006B00052421843BCBFD0401843704792F0000F1D
:1006C00081F4000106BF80F400000132013BB5E770
:1006D0004FEA41037FEA226C18BF7FEA236C21D0E6
:1006E00092EA030F04D092F0000F08BF084670474B
:1006F00090EA010F1CBF0020704712F07F4F04D119
:10070000400028BF40F00040704712F100723CBF2B
:1007100000F50000704700F0004343F0FE4040F455
:10072000000070477FEA226216BF08467FEA236313
:100730000146420206BF5FEA412390EA010F40F4FE
:10074000800070474FF0000304E000BF10F000434A
:1007500048BF40425FEA000C08BF704743F0964331
:1007600001464FF000001CE050EA010208BF70474C
:100770004FF000030AE000BF50EA010208BF7047D3
:1007800011F0004302D5404261EB41015FEA010CE8
:1007900002BF84460146002043F0B64308BFA3F1E0
:1007A0008053A3F50003BCFA8CF2083AA3EBC253C2
:1007B00010DB01FA02FC634400FA02FCC2F12002E1
:1007C000BCF1004F20FA02F243EB020008BF20F018
:1007D0000100704702F1200201FA02FCC2F120027E
:1007E00050EA4C0021FA02F243EB020008BF20EA73
:1007F000DC7070474FF0FF0C1CEAD0521EBF1CEAA1
:10080000D15392EA0C0F93EA0C0F6FD01A4480EA8E
:10081000010C400218BF5FEA41211ED04FF0006377
:1008200043EA501043EA5111A0FB01310CF00040A3
:10083000B1F5000F3EBF490041EAD3715B0040EAC9
:10084000010062F17F02FD2A1DD8B3F1004F40EB99
:10085000C25008BF20F00100704790F0000F0CF06C
:10086000004C08BF49024CEA502040EA51207F3A30
:10087000C2BFD2F1FF0340EAC250704740F400000B
:100880004FF00003013A5DDC12F1190FDCBF00F0FC
:1008900000407047C2F10002410021FA02F1C2F1AA
:1008A000200200FA02FC5FEA310040F1000053EA46
:1008B0004C0308BF20EADC70704792F0000F00F094
:1008C000004C02BF400010F4000F013AF9D040EA9A
:1008D0000C0093F0000F01F0004C02BF490011F42E
:1008E000000F013BF9D041EA0C018FE70CEAD1532C
:1008F00092EA0C0F18BF93EA0C0F0AD030F0004CAC
:1009000018BF31F0004CD8D180EA010000F000405F
:10091000704790F0000F17BF90F0004F084691F01D
:10092000000F91F0004F14D092EA0C0F01D1420257
:100930000FD193EA0C0F03D14B0218BF084608D120
:1009400080EA010000F0004040F0FE4040F400006A
:10095000704740F0FE4040F4400070474FF0FF0CFD
:100960001CEAD0521EBF1CEAD15392EA0C0F93EA44
:100970000C0F69D0A2EB030280EA010C49024FEA96
:10098000402037D04FF0805343EA111143EA10134F
:100990000CF000408B4238BF5B0042F17D024FF407
:1009A000000C8B4224BF5B1A40EA0C00B3EB510FE2
:1009B00024BFA3EB510340EA5C00B3EB910F24BFCB
:1009C000A3EB910340EA9C00B3EBD10F24BFA3EB50
:1009D000D10340EADC001B0118BF5FEA1C1CE0D118
:1009E000FD2A3FF650AF8B4240EBC25008BF20F0CB
:1009F000010070470CF0004C4CEA50207F32C2BF1F
:100A0000D2F1FF0340EAC250704740F400004FF0BB
:100A10000003013A37E792F0000F00F0004C02BFEC
:100A2000400010F4000F013AF9D040EA0C0093F0B6
:100A3000000F01F0004C02BF490011F4000F013B10
:100A4000F9D041EA0C0195E70CEAD15392EA0C0F78
:100A500008D142027FF47DAF93EA0C0F7FF470AFB0
:100A6000084676E793EA0C0F04D14B023FF44CAFF3
:100A700008466EE730F0004C18BF31F0004CCAD188
:100A800030F000427FF45CAF31F000437FF43CAFC4
:100A90005FE700BF42000ED2B2F1FE4F0BD34FF022
:100AA0009E03B3EB126209D44FEA002343F00043E4
:100AB00023FA02F070474FF00000704712F1610F07
:100AC00001D1420202D14FF0FF3070474FF00000D9
:100AD000704700BF0348044B834202D0034B03B16D
:100AE000184770478C0100208C0100200000000096
:100AF00005480649091A891001EBD171491002D045
:100B0000034B03B1184770478C0100208C01002073
:100B10000000000010B5064C237843B9FFF7DAFF58
:100B2000044B13B10448AFF300800123237010BDC0
:100B30008C01002000000000386B000808B5054B50
:100B40001BB105490548AFF30080BDE80840FFF739
:100B5000CFBF00BF0000000090010020386B0008EC
:100B60002DE9F04389B00024049405940694079479
:100B7000394B9A6942F020029A619A6902F0200288
:100B80000092009A9A6942F004029A619A6902F00E
:100B900004020192019A9A6942F008029A619A69E4
:100BA00002F008020292029A9A6942F010029A61D7
:100BB0009B6903F010030393039B284E2246602198
:100BC000304603F0B8F8DFF89890224601214846F5
:100BD00003F0B1F8DFF88C8001224FF40051404659
:100BE00003F0A9F8102304930594012506950DEB55
:100BF0000301304602F0ACFF802304930594069570
:100C000004A9304602F0A4FF20230493059506941E
:100C10000227079704A9304602F09AFF4023049365
:100C200005950694079704A9304602F091FF0495B4
:100C300005950694079704A9484602F089FF4FF4EA
:100C40000053049305950694079704A9404602F0C3
:100C50007FFF09B0BDE8F0830010024000080140AA
:100C6000000C01400010014030B587B0002502950E
:100C700003950495059500950195124C4FF080431E
:100C8000236047236360A5604FF6FE73E360256130
:100C9000A561204603F036FA4FF48053029302A96F
:100CA000204603F066FA009501956946204603F058
:100CB000CFFA204603F0C8F8204603F0F3F807B057
:100CC00030BD00BFE01D002030B595B000240C946D
:100CD0000D940F9410940594069407940894099425
:100CE000019402940394049401220A924FF48033F5
:100CF0000B930E920225119512934FF4E013139368
:100D00000AA802F071FB0F230593069507944FF490
:100D1000806308930994294605A802F0A5FD1023D5
:100D20000193049401A802F089FE15B030BD0000C3
:100D300008B502F00BFBFFF7C7FFFFF711FFFFF746
:100D400093FF642002F026FB00F096F804F04AFDC1
:100D5000044A0021044804F08DFD044B186004F09F
:100D600063FDFEE7646B0008AD0D00089C1D0020CC
:100D700010B5072000F0EEFA0A4C2080082000F0A1
:100D8000E9FA6080062000F0E5FAA080052000F076
:100D9000E1FAE080044A1179D37803EB012323813F
:100DA00010BD00BFB0010020B01D002010B582B002
:100DB000012301930020009003460246014600F003
:100DC0004BFC1C4B186080B11B4C00224FF40051AF
:100DD000204602F0B0FFC82004F0C2FD01224FF40B
:100DE0000051204602F0A7FFE2E700224FF4005135
:100DF00000F1804000F5883002F09DFF0A240FE0EA
:100E00000021084600F050FB0C4B1870FFF7B0FFB4
:100E10000A220B490B4805F01BFE012004F0A0FD3F
:100E2000002CEDD04021002000F03EFB034B187059
:100E3000013CEBE7AC01002000100140A8010020BC
:100E4000B0010020D81A0020034B1A680023536217
:100E5000536A8342FCD37047E01D002008B5026846
:100E6000034B9A4200D008BD02F082FAFBE700BFB4
:100E7000000400407047000008B500220B490C48F0
:100E800005F034F848B90B49094805F046F838B977
:100E9000074805F049F830B908BDFFF7EBFFF2E766
:100EA000FFF7E8FFF4E7FFF7E5FFF5E700000020B4
:100EB000D81A0020D0000020022807D8DFE800F070
:100EC000020604000020704701207047022070478E
:100ED00002680E4B9A4200D0704700B583B003F50C
:100EE000DA33DA6942F40002DA61DB6903F4000301
:100EF0000193019B00220521142002F035FF1420EC
:100F000002F066FF03B05DF804FB00BF005C004028
:100F100008B500F52C71D0F8E80205F01EF808BD00
:100F200008B501EB8102D3000344D3F87C21D0F84B
:100F3000E80205F040F808BD08B501EB8102D300D6
:100F40000344DA6BD0F8E80205F07FF808BD08B575
:100F5000D0F8E80205F022F908BD10B50446836810
:100F6000022B09D10121D4F8E80205F000F9D4F8E8
:100F7000E80205F0D4F810BDFFF77CFFF2E70000AF
:100F800010B50446D0F8E80205F0F4F8A36923B1DF
:100F9000024A136943F00603136110BD00ED00E03F
:100FA00008B5D0F8E80205F0EEF808BD10B5044623
:100FB0001648C0F8E842C4F8C002154B0360082385
:100FC00043600223836000238361C361036200F0F6
:100FD00080FCB8B9182300221146D4F8C00201F0F1
:100FE0009EFA582300228021D4F8C00201F097FA1B
:100FF0004FF4807300228121D4F8C00201F08FFAEF
:10100000002010BDFFF736FFE4E700BF381E0020C8
:10101000005C004008B5D0F8C00200F0E0FCFFF72B
:101020004BFF08BD10B51C4613462246D0F8C0023F
:1010300001F04FF9FFF740FF10BD08B5D0F8C0022E
:1010400001F081F9FFF738FF08BD08B5D0F8C002FC
:1010500001F0F0F9FFF730FF08BD08B5D0F8C00285
:1010600001F023FAFFF728FF08BDD0F8C03211F0D5
:10107000800F08D101F07F0101EB8101CA00134408
:1010800093F86A01704701F07F01013101EB8101A2
:10109000CA0013449878704708B5D0F8C00201F030
:1010A0001DF8FFF709FF08BD08B5D0F8C00201F030
:1010B0009CF9FFF701FF08BD08B5D0F8C00201F0A8
:1010C00073F9FFF7F9FE08BD00487047BC01002026
:1010D0007047704712230B80004870471C000020A7
:1010E00004230B8000487047300000200023934207
:1010F00016D230B40BE0373401F8134000015C0025
:10110000013400250D550133DBB2934206D2040FA2
:10111000092CF0D8303401F81340EFE730BC7047A9
:101120007047000038B50A4B186804331C68043354
:101130001B68C01800D138BD064D0822A91CFFF756
:10114000D5FF042205F112012046FFF7CFFFF2E799
:10115000E8F7FF1F3400002008B51A230B80FFF7C3
:10116000E1FF014808BD00BF3400002008B50A4671
:1011700028B90549054805F04DFB034808BD02495B
:10118000024805F047FBF8E724210020C46B000863
:1011900010B5044C0A462146034805F03BFB2046A7
:1011A00010BD00BF24210020B06B000808B50A461E
:1011B00028B90549054805F02DFB034808BD02493B
:1011C000024805F027FBF8E724210020946B000873
:1011D00008B50A4628B90549054805F01BFB034830
:1011E00008BD0249024805F015FBF8E7242100205C
:1011F000A06B00087047FEE7FEE7FEE7FEE77047DA
:1012000008B5024800F07EFF08BD00BF381E002070
:1012100008B5024802F07EFE08BD00BF242300206E
:1012200000B583B0114B9A6942F001029A619A6944
:1012300002F001020092009ADA6942F08052DA610B
:10124000DB6903F080530193019B00220F216FF0B3
:10125000010002F089FD064A536823F0E06343F081
:101260000073536003B05DF804FB00BF0010024040
:10127000000001400368B3F1804F00D0704782B096
:1012800003F50433DA6942F00102DA61DB6903F045
:1012900001030193019B02B07047000000B589B0C3
:1012A000002201461D2002F05FFD1D2002F090FD8E
:1012B000154BDA6942F00202DA61DB6903F00203DE
:1012C0000193019B02A903A802F09AFB02F088FB9C
:1012D00043000E48A0FB03239B0C013B0C480D4A26
:1012E000026040F2E732C260436000230361836022
:1012F00002F008FF18B1012009B05DF804FB0448B2
:1013000002F0D0FDF8E700BF0010024083DE1B436F
:1013100024230020000400402DE9F04188461746B0
:101320001C46FFF75DF9054621460698FFF758F978
:10133000064641463846FFF753F901463046FFF767
:101340000DFB01462846FFF755FA2146FFF74AF9FB
:10135000BDE8F081014B185C704700BFB01D002054
:101360002DE9F0410646002427460FE000224021E7
:10137000224802F0E0FC16E0012220211F4802F082
:10138000DAFC0220FFF760FD0134E4B2072C1FD81D
:10139000A04646FA04F313F0010FE7D001224021E2
:1013A000164802F0C8FC154D00222021284602F004
:1013B000C2FC0220FFF748FD8021284602F0B4FC61
:1013C0000028D9D0012000FA08F03843C7B2D3E78B
:1013D0000A4C01224021204602F0ADFC00222021CF
:1013E000204602F0A8FC0A20FFF72EFD0022202153
:1013F000204602F0A0FC3846BDE8F081000801401C
:1014000070B506460D46002201210E4802F093FCFD
:101410000220FFF719FD0024A54204DD305DFFF72F
:101420009FFF0134F8E701221146064802F083FCD1
:1014300000222021044802F07EFC044B187804F0BE
:101440008FFA70BD000C014000080140AD1D002066
:1014500008B505210D48FFF7D3FF09210C48FFF718
:10146000CFFF0C4B1B783BB90B4B1B784BB90921B9
:101470000A48FFF7C5FF08BD05210948FFF7C0FF6F
:10148000F2E709210748FFF7BBFFF0E7580000200B
:1014900078000020CC1D0020A01D0020600000204E
:1014A000500000206C0000202DE9F04387B0074673
:1014B0000E4601F069FF5D4B1C68041B2046FEF7D9
:1014C00069FF8046894640F2DC539C422FD8584B36
:1014D0001878FEF76FFF04460D4642464B46FFF76D
:1014E00051F838BB6EB1534C3046FFF72BF90094DE
:1014F0004FF0854322460021FFF70EFFFFF7CAFA9F
:10150000C6B201238DF80C3042238DF80D30002532
:101510008DF80E508DF80F708DF810608DF8115009
:101520008DF812508DF813508DF8145034E0FFF7F9
:101530008FFFCCE742464B4620462946FEF7ECFD9E
:10154000FFF72AF804F00CFACCE706AB234413F8B3
:101550000C0CFFF705FF384B18550134082CF4DD4F
:10156000354B5B78792B2ED001221146334802F09F
:10157000E2FB00222021324802F0DDFB2E4B5B789B
:1015800003F0F003702B4FD0FFF762FF284B187861
:1015900004F0E6F90135EDB2042D20D8284C0122E3
:1015A0004021204602F0C7FB00220121234802F01F
:1015B000C2FB01222021204602F0BDFB0A20FFF7DA
:1015C00043FC0024CAE700240B2CCDDC04F10906FF
:1015D0000020FFF7C5FE184B98550134F4E7164B71
:1015E0005B7803F0F003702B06D0114B1B78092BAE
:1015F00002D801330E4A1370124A1188124B198017
:101600000D4C2179E37803EB0123138001F0BCFE3C
:10161000064B1860607800F0F000702814BF0020BE
:10162000012007B0BDE8F0830120FAE7281E002062
:10163000AD1D002000007F43B01D0020000C0140C4
:1016400000080140CA1D0020C61D002008B5002169
:101650000846FFF729FF08BDF0B585B09DF8286062
:101660009DF82C70494C01224021204602F063FB7A
:1016700001222021204602F05EFB0024092C03DC1D
:10168000FFF7E4FF0134F9E7414B5A78A2F1410337
:10169000DBB2012B03D9732A01D0792A6BD13D4BE0
:1016A00001221A70002538E03B4B185DFFF758FE09
:1016B00004AB234403F80C0C0134082CF4DD0122A4
:1016C0001146364802F037FB002220212F4802F055
:1016D00032FB9DF80720324B1A7009213148FFF781
:1016E0008FFE002F34D1002E3AD109212E48FFF76A
:1016F00087FEFFF7ABFF2EB1254B5B78792B3CD0F3
:10170000732B3CD0224B5B78732B3AD00A2D3AD006
:10171000204A13780133137001350A2D28DC052186
:101720002248FFF76DFE194C01224021204602F0AD
:1017300002FB00220121194802F0FDFA01222021BA
:10174000204602F0F8FA0A20FFF77EFB0024B4E7F7
:1017500005211748FFF754FE164B01221A70C2E705
:1017600009211548FFF74CFE144B01221A70BCE703
:10177000002005B0F0BD0120FBE70020F9E70320C1
:10178000F7E70020F5E70220F3E700BF000801407B
:10179000B01D0020AD1D0020D86B0008000C0140DA
:1017A000A11D0020780000206000002058000020CB
:1017B00050000020CC1D00206C000020A01D002047
:1017C00070B512F4804F42D00468B4F850300D78F0
:1017D00003EBC503023304EB4303B3F80044C4F343
:1017E00009048B69A34228D31B1B8B618B697BB9CE
:1017F000066836F825309BB223F4804323F070034B
:1018000083F4005343F4004343F0800326F825306B
:1018100012F0400F0ED002680D7832F825309BB2DE
:1018200023F4E04323F0700343F4004343F0C00388
:1018300022F8253024B9204670BD00238B61D5E7FE
:1018400023460A894969006801F068FDF3E70468E6
:10185000B4F850300D7803EBC503063304EB4303B3
:10186000B3F80044C4F309048B69A3422ED31B1BB5
:101870008B618B697BB9066836F825309BB223F4FF
:10188000804323F0700383F4005343F4004343F098
:10189000800326F8253012F0400F0ED102680D7833
:1018A00032F825309BB223F4E04323F0700343F475
:1018B000004343F0C00322F82530002CBBD0234660
:1018C0004A894969006801F029FDB4E700238B616A
:1018D000CFE7F0B587B000287FD0044690F8A93252
:1018E000D3B1032384F8A932206800F046FE2546D0
:1018F00055F8107B6E460FCD0FC62B683360231D45
:101900000ECB384600F029FE58B1022384F8A932E4
:101910000125284607B0F0BD80F8A832FFF7D8FAB5
:10192000DFE70021206800F032FE00236568AB424B
:101930001BD2581C81000D18EA0022440125557065
:101940000D18EA00A3549D00EE18F2002244D3863D
:101950000144CE0026440021F1709163D1632B44F1
:10196000DA0022441164C3B2E0E700239D4216D995
:101970009800C118CA002244002182F8691182F837
:10198000683182F86B11C2F87811C2F87C11C21864
:10199000D0002044C0F880110133DBB2E6E72546D1
:1019A00055F8107B6E460FCD0FC62B683360231D94
:1019B0000ECB384600F0EDFD054620B1022384F839
:1019C000A9320125A5E7002384F82430012384F8F7
:1019D000A932206801F0F0F89BE7012599E738B5B6
:1019E00090F8A832012B11D00446012580F8A852A6
:1019F000006800F0B9FD29462046FFF76AFB206821
:101A000001F0D8F8002084F8A80238BD0220FCE7D5
:101A100070B505460C46164612F0400F00F0B48033
:101A20000268B2F85030097803EBC103023302EBCD
:101A30004303B3F80024C2F30902A36993422BD9EC
:101A40009B1AA361A36953B316F4804F0DD0286885
:101A500030F821309BB223F4E04323F0700343F4C9
:101A6000404343F0800320F8213094F82430012BC8
:101A70002BD02A68217832F821309BB223F4E0433E
:101A800023F0400383F0300343F4004343F080032A
:101A900022F82130002070BD0023A361D2E7284640
:101AA000FFF74AFA16F4804FE3D02A68217832F81B
:101AB00021309BB223F4E04323F0700343F440430E
:101AC00043F0800322F82130D3E763691344636154
:101AD000E3691344E361216A236999421BD3C91A5C
:101AE00021626278002A3BD12A68B2F850100A4479
:101AF000217802EB0112D3B9B2F8041489B221F4AF
:101B0000F84189B2A2F80414B2F8041441F4004177
:101B1000A2F8041426E021B9002384F824301346E7
:101B2000DFE7002384F8243023620B46D9E73E2BFD
:101B300009D8590813F0010F00D00131890289B288
:101B4000A2F804140EE0590913F01F0F00D1013957
:101B50006FEAC1616FEA514189B2A2F8041401E051
:101B6000012A06D09BB222896169286801F02BF80E
:101B70007FE72A68B2F850100A44217802EB01127C
:101B800099B2A2F80414EDE70268B2F8503009786F
:101B900003EBC103063302EB4303B3F80024C2F3A3
:101BA0000902A369934240D39B1AA361A369002B46
:101BB0003ED016F4804F0DD1286830F821309BB20A
:101BC00023F4E04323F0700343F4404343F08003E5
:101BD00020F8213094F82430012B7FF44AAF636958
:101BE00013446361E3691344E361216A2369994201
:101BF00035D3C91A21622A686178002954D1B2F814
:101C000050100A44217802EB0112A3BBB2F80C1465
:101C100089B221F4F84189B2A2F80C14B2F80C147C
:101C200041F40041A2F80C1440E00023A361BDE799
:101C30002846FFF781F916F4804F7FF41AAF2A681F
:101C4000217832F821309BB223F4E04323F0700373
:101C500043F4404343F0800322F8213009E721B9DF
:101C6000002384F824301346C5E70023236284F858
:101C700024300B46BFE73E2B09D8590813F0010F5B
:101C800000D00131890289B2A2F80C140EE0590982
:101C900013F01F0F00D101396FEAC1616FEA5141A2
:101CA00089B2A2F80C1401E0012906D09BB2628926
:101CB0006169286800F087FFDBE6B2F850100A443B
:101CC000217802EB011299B2A2F80C14EEE72DE98B
:101CD000F04104462068B0F8443013F4004F00F09F
:101CE000FA81B0F844309BB213F00F0540F0CD807C
:101CF00013F0100F58D003889BB213F4006F40F01C
:101D0000898013F4004FE5D0038823F070031B058E
:101D10001B0D43F0800303802068B0F8503094F826
:101D2000682103EBC203063300EB4303B3F800342E
:101D3000C3F30903C4F884318BB1D4F87C1171B1B9
:101D4000B4F86E2101F0EAFAD4F88421D4F87C3199
:101D50001344C4F87C3100212046FFF7E1F82368E2
:101D6000B3F850201344D4F87821002A74D1B3F882
:101D70000C2492B222F4F84292B2A3F80C24B3F8E5
:101D80000C2442F40042A3F80C24226813889BB26E
:101D900023F4804323F0700383F4405343F400435F
:101DA00043F08003138095E703889BB223F4E1435B
:101DB00023F070036FEA43436FEA53439BB20380FF
:101DC0002268B2F8503094F8281003EBC1030233B4
:101DD00002EB4303B3F80034C3F309036364E26B1B
:101DE0001344E36300212046FFF7A6F894F824305B
:101DF000002B3FF46FAF236C002B7FF46BAF94F894
:101E00002430226843F08003A2F84C30002384F889
:101E100024305FE7B0F8503094F8682103EBC20338
:101E2000063300EB4303B3F80034C3F30903C4F8EB
:101E30008431B4F86E2104F52C7101F06FFA226838
:101E4000138823F070031B051B0D43F080031380E0
:101E50002046FFF75DF83DE73E2A09D8510812F009
:101E6000010F00D00131890289B2A3F80C148CE76C
:101E7000510912F01F0F00D101396FEAC1626FEAF8
:101E8000524292B2A3F80C247FE730F82560B6B234
:101E900016F4004F49D116F0800F3FF41BAF681CB9
:101EA00082001318D9002144276837F825309BB2E7
:101EB00023F4E14323F070036FEA43436FEA534393
:101EC0009BB227F82530CB78022B00F0E780206802
:101ED000B0F850306A1C02EB8202D600A25D03EB20
:101EE000C203023300EB4303B3F80034C3F3090326
:101EF00005EB8506F20016462244126C9A4240F227
:101F0000D6802644D21A326405EB8506F2002244BC
:101F1000126C002A40F0D280013505EB8505EB00FC
:101F2000E15C2046FFF708F8D4E630F8253023F0CE
:101F300070031B051B0D43F0800320F82530AB0018
:101F40005A194FEAC208424608F5B478A044224420
:101F500092F87431002B3FD12068B0F8503005EB77
:101F60008501CA001146224492F8682103EBC2039E
:101F7000063300EB4303B3F80074C7F3090717BB3C
:101F8000AA002A44D3002344D3F884213A44C3F856
:101F90008421D3F87C213A44C3F87C21D3F88031E2
:101FA0003BB105EB8502D3002344D3F878319F423F
:101FB0006FD205EB8502D300234493F868112046C5
:101FC000FEF7AEFF67E721443B46B1F86E21D1F83A
:101FD0007C1101F0A3F9D3E705EB8502D30023447C
:101FE00093F86B31022B34D02168AB002B44DA001C
:101FF000224492F8680131F820309BB223F4E04388
:1020000023F0700343F4004343F0C00321F8203071
:10201000206892F8682130F8223013F4804F1FD0E6
:10202000B0F8503003EBC203023300EB4303B3F8C4
:102030000074C7F30907002FA2D0AB002B44D900CE
:1020400021443B46B1F87021D1F87C1101F066F9CA
:1020500096E7324641462046FFF7B2FB07468FE738
:10206000B0F8503003EBC203063300EB4303B3F880
:102070000074C7F30907002F82D0AB002B44D900AE
:1020800021443B46B1F87221D1F87C1101F046F9A8
:1020900076E74146206800F0ABFDFCE616F4807F51
:1020A0003FF415AF32462046FFF7B2FC12E605EBCF
:1020B0008506F20022440026166425E7AE00771953
:1020C000FA002244D76B1F44D763556C2B445364EA
:1020D00000F08EFDFEE50020BDE8F08190F8A8320A
:1020E000012B0DD010B50446012380F8A83280F8EA
:1020F0002410006800F058FD002084F8A80210BDEC
:102100000220704710B584B00446006800F056FD08
:1021100010F4004F47D1206800F050FD10F4806F9C
:1021200045D1206800F04AFD10F4804F08D02268A5
:10213000B2F844309BB223F480439BB2A2F84430FF
:10214000206800F03BFD10F4005F08D02268B2F870
:1021500044309BB223F400539BB2A2F84430206871
:1021600000F02CFD10F4805F32D1206800F026FDD5
:1021700010F4006F77D1206800F020FD10F4007F8C
:1021800040F09A80206800F019FD10F4807F08D09C
:102190002268B2F844309BB223F480739BB2A2F859
:1021A000443004B010BD2046FFF791FDB3E722682C
:1021B000B2F844309BB223F480639BB2A2F844305F
:1021C0002046FEF7CAFE00212046FFF787FFA8E75A
:1021D0002268B2F840309BB223F004039BB2A2F80D
:1021E00040302268B2F840309BB223F008039BB223
:1021F000A2F840302046FEF7D3FE2268B2F8443001
:102200009BB223F480539BB2A2F84430ADE722681E
:1022100032F8231004AA02EB430222F8101C013307
:10222000DBB2072BF3D92268B2F8403043F0010348
:10223000A2F840302268B2F840309BB223F001038C
:102240009BB2A2F840302368B3F8442012F4806FA8
:10225000F9D0B3F8442092B222F4806292B2A3F88B
:10226000442000230BE00023DBE7226804A901EBF4
:10227000430131F8101C22F823100133DBB2072B85
:10228000F3D92268B2F8403043F00803A2F8403096
:102290002268B2F844309BB223F400639BB2A2F8E8
:1022A00044302268B2F8403043F00403A2F84030D2
:1022B0002046FEF765FE5EE72268B2F844309BB226
:1022C00023F400739BB2A2F844302046FEF73FFE91
:1022D00058E7F8B511F0800F26D101F00705AE00E0
:1022E0007719FC00274604F5B4740444074400251C
:1022F00087F8695101F0070121702261E37062786B
:1023000002B1E181022B19D090F8A832012B18D02C
:102310000546012380F8A8322146006800F04CF9F8
:10232000002085F8A802F8BD01F007056E1CB50075
:10233000AF19FC00044401256570DBE7002323711D
:10234000E2E70220EFE738B511F0800F20D101F06D
:102350000704A2001519EB001D4603F5B4730344EE
:102360002C460444002284F8692101F00701197009
:1023700090F8A822012A15D00446012280F8A8224C
:102380001946006800F0B0FA002084F8A80238BDB1
:1023900001F00702541CA2001519EB0003440122AE
:1023A0005A70E2E70220F2E7F8B501F00705AE0047
:1023B0007119CC0004F5B47401197719FC000444B8
:1023C000C4F87C21C4F880310023C4F8843184F837
:1023D000693184F8685125B9006800F009FC0020D3
:1023E000F8BD006800F004FCF9E7F8B501F0070655
:1023F000771CBD00EC19E10001444FEA860CB4449F
:102400004FEACC040444E2632364012284F84C20A4
:10241000A36400236364EC19E3001C464A7006556C
:1024200026B9006800F0E4FB0020F8BD006800F069
:10243000DFFBF9E738B501F0070543689D4230D866
:1024400011F0800F1FD18A005418E3001C4603F5D9
:10245000B473034422460244002182F86911012228
:102460009A701D7090F8A822012A1CD004460122FF
:1024700080F8A8221946006800F020FB5DB100201A
:1024800084F8A80238BD6C1CA2001119CB000344CB
:1024900001225A70E3E704F52C71206800F091FBEB
:1024A000EDE70120EEE70220ECE738B501F00F027E
:1024B00043689A422FD811F0800F22D101F007040F
:1024C000A3001D19EA00154602F5B47202442C4619
:1024D0000444002384F869310023937001F007035A
:1024E000137090F8A832012B17D00446012380F80E
:1024F000A8321146006800F006FB002084F8A8020C
:1025000038BD01F007035C1CA3001D19EA0002445A
:1025100001235370E0E70120F2E70220F0E710B456
:1025200011F0800F0CD001F00701013101EB8101A6
:10253000CC0020445AB90273C380002010BC7047FD
:1025400001EB8101CC0004F5B4742044F2E70122D0
:10255000027303811B0C4381EFE784B001A880E87C
:102560000E00002004B070470023A0F844304FF460
:102570003F42A0F8402018467047B0F8403023F49E
:102580007C535B045B0CA0F84030002070470020B7
:10259000704784B010B402AC84E80E000123A0F8A8
:1025A00040300023A0F84030A0F84430A0F850306C
:1025B000184610BC04B0704730B403460C7830F8AD
:1025C000242092B222F4EC4222F0700292B2C87837
:1025D00003285AD8DFE800F04D550251002048F298
:1025E00080052A4323F824200C7833F8242092B263
:1025F00022F4E04222F0700222432A4323F82420EE
:102600000A7B002A40F0B1804A78002A4ED0B3F805
:1026100050201A440C7802EB0412CC886408640041
:10262000A2F800440C7833F8242012F0400F0CD0AC
:1026300033F8242092B222F4E04222F0700242F4F5
:10264000004242F0C00223F82420CA78012A1ED09A
:10265000097833F8212092B222F4E04222F04002BD
:1026600082F0200242F4004242F0800223F821204E
:1026700060E042F400720020B1E742F4C062002042
:10268000ADE742F480620020A9E70120A7E70978BE
:1026900033F8212092B222F4E04222F0400242F4C8
:1026A000004242F0800223F8212043E0B3F850209A
:1026B0001A440C7802EB0412CC8864086400A2F877
:1026C0000844B3F850201A440C7802EB04120C6949
:1026D00094BBB2F80C44A4B224F4F844A4B2A2F817
:1026E0000C44B2F80C4444F40044A2F80C440C78B6
:1026F00033F8242012F4804F0CD033F8242092B207
:1027000022F4E04222F0700242F4404242F08002A1
:1027100023F82420097833F8212092B222F4804251
:1027200022F0700282F4405242F4004242F08002F1
:1027300023F8212030BC70473E2C09D8650814F0DE
:10274000010F00D00135AD02ADB2A2F80C54CEE7B6
:10275000650914F01F0F00D1013D6FEAC5646FEAEF
:102760005444A4B2A2F80C44C1E70C7833F82420F6
:1027700092B222F4E04222F0700242F4014242F0AE
:10278000800223F82420B3F850201A440C7802EB7E
:1027900004120C8964086400A2F80044B3F85020C5
:1027A0001A440C7802EB04124C8964086400A2F805
:1027B00008444A78002A40D10C7833F8242012F4D7
:1027C000804F0CD033F8242092B222F4E04222F061
:1027D000700242F4404242F0800223F824200C7838
:1027E00033F8242012F0400F0CD033F8242092B29A
:1027F00022F4E04222F0700242F4004242F0C002B1
:1028000023F824200D7833F8252092B222F4804258
:1028100022F0700282F4405248F28004224323F8EE
:102820002520097833F8212092B222F4E04222F0E8
:102830004002224323F821207CE70C7833F824203F
:1028400012F4804F0CD033F8242092B222F4E042EC
:1028500022F0700242F4404242F0800223F8242029
:102860000C7833F8242012F0400F0CD033F82420D9
:1028700092B222F4E04222F0700242F4004242F0AE
:10288000C00223F82420CA78012A1ED00C7833F81D
:10289000242092B222F4E04222F0400282F0200290
:1028A00042F4004242F0800223F82420097833F8F1
:1028B000212092B222F4804222F0700242F40042BF
:1028C00042F0800223F8212034E70C7833F82420EA
:1028D00092B222F4E04222F0400242F4004242F07E
:1028E000800223F82420E1E70B7B002B46D14B78B4
:1028F00013B30A7830F8223013F0400F0CD030F8C0
:1029000022309BB223F4E04323F0700343F40043EE
:1029100043F0C00320F822300A7830F822309BB20E
:1029200023F4E04323F0400343F4004343F08003E7
:1029300020F82230002070470A7830F8223013F453
:10294000804F0CD030F822309BB223F4E04323F0C8
:10295000700343F4404343F0800320F822300A78A8
:1029600030F822309BB223F4804323F0700343F409
:10297000004343F0800320F82230DBE710B44B78AB
:10298000002B4ED10A7830F8223013F4804F0CD04F
:1029900030F822309BB223F4E04323F0700343F479
:1029A000404343F0800320F822300A7830F8223088
:1029B00013F0400F0CD030F822309BB223F4E043E8
:1029C00023F0700343F4004343F0C00320F82230A7
:1029D0000A7830F822309BB223F4E04323F07003EE
:1029E00043F4004343F0C00320F822300B7830F862
:1029F000232092B222F4804222F0700248F2800436
:102A0000224320F823200A7830F822309BB223F4A6
:102A1000E04323F04003234320F82230002010BC81
:102A200070470A7830F8223013F4804F0CD030F819
:102A300022309BB223F4E04323F0700343F440437D
:102A400043F0800320F822300A7830F8223013F067
:102A5000400F0CD030F822309BB223F4E04323F037
:102A6000700343F4004343F0C00320F822300A7897
:102A700030F822309BB223F4E04323F0700343F498
:102A8000404343F0800320F822300B7830F82320B5
:102A900092B222F4E04222F0400248F28004224343
:102AA00020F823200A7830F822309BB223F48043A8
:102AB00023F07003234320F82230AFE74B788BB12B
:102AC0000A7830F822309BB223F4E04323F040032D
:102AD00083F0100343F4004343F0800320F82230D6
:102AE000002070470A7830F822309BB223F48043EC
:102AF00023F0700383F4805343F4004343F08003D6
:102B000020F82230ECE70B7B002B4BD14B7833B312
:102B10000A7830F8223013F0400F0CD030F8223011
:102B20009BB223F4E04323F0700343F4004343F0EB
:102B3000C00320F82230CB78012B33D00A7830F84C
:102B400022309BB223F4E04323F0400383F02003C0
:102B500043F4004343F0800320F8223022E00A7857
:102B600030F8223013F4804F0CD030F822309BB272
:102B700023F4E04323F0700343F4404343F0800325
:102B800020F822300A7830F822309BB223F48043B8
:102B900023F0700383F4405343F4004343F0800375
:102BA00020F822300020704711B98023A0F84C3063
:102BB000002070470020704700207047B0F84400A4
:102BC00070470020704701335B0800EB420202F5BA
:102BD000806263B110B40C78487844EA002422F88B
:102BE000044B0231013B002BF5D110BC70477047FC
:102BF000F8B54A78012A33D00B7B002B40F07C8259
:102C00008B690A69934240F25A829B1A8B61B0F831
:102C1000503003440C7803EB0413002A40F0538235
:102C2000B3F80C2492B222F4F84292B2A3F80C2426
:102C3000B3F80C2442F40042A3F80C240A7830F8CC
:102C400022309BB223F4804323F0700383F440537B
:102C500043F4004343F0800320F822300020F8BD05
:102C60008E690F69BE4200D93E460C4605460B7B75
:102C70001BB3CB78022B40D00B7830F8231011F027
:102C8000400F00F0D181002A40F0AE81B0F8502012
:102C9000024402EB0313002E40F08D81B3F80C24A4
:102CA00092B222F4F84292B2A3F80C24B3F80C24A6
:102CB00042F40042A3F80C249EE1B6B23346CA881F
:102CC0004969FFF780FFB5F850302B44227803EBB9
:102CD0000213A3F80464227835F822309BB223F45F
:102CE000E04323F0400383F0300343F4004343F018
:102CF000800325F822300020B1E70B6A9F4280F064
:102D00003E810A7830F822309BB223F4E04323F06E
:102D1000700343F4014343F0800320F822300B6A30
:102D20009B1B0B620B7830F8232012F0400F00F051
:102D300093804A786ABBB0F85020024402EB031338
:102D400076B9B3F80C2492B222F4F84292B2A3F806
:102D50000C24B3F80C2442F40042A3F80C241AE02B
:102D60003E2E09D8720816F0010F00D001329202EF
:102D700092B2A3F80C240EE0720916F01F0F00D1D6
:102D8000013A6FEAC2626FEA524292B2A3F80C248F
:102D900001E0012A27D0B3B2628961692846FFF7B2
:102DA00012FF636933446361236A2269934223D922
:102DB0009B1B23626378002B3BD1B5F850302B442A
:102DC000227803EB0213DEB9B3F8042492B222F4A2
:102DD000F84292B2A3F80424B3F8042442F4004267
:102DE000A3F8042427E0B0F85020024402EB0313B8
:102DF000B2B2A3F80C24CEE7002222621E46D9E725
:102E00003E2E09D8720816F0010F00D0013292024E
:102E100092B2A3F804240EE0720916F01F0F00D13D
:102E2000013A6FEAC2626FEA524292B2A3F80424F6
:102E300001E0012B06D0B3B2228961692846FFF771
:102E4000C2FE48E7B5F850302B44227803EB02135A
:102E5000B2B2A3F80424EEE74A786ABBB0F8502077
:102E6000024402EB031376B9B3F8042492B222F4BD
:102E7000F84292B2A3F80424B3F8042442F40042C6
:102E8000A3F804241AE03E2E09D8720816F0010FA8
:102E900000D00132920292B2A3F804240EE072092B
:102EA00016F01F0F00D1013A6FEAC2626FEA524278
:102EB00092B2A3F8042401E0012A27D0B3B22289F8
:102EC00061692846FFF77FFE636933446361236AC3
:102ED0002269934223D99B1B23626378002B3BD149
:102EE000B5F850302B44227803EB0213DEB9B3F867
:102EF0000C2492B222F4F84292B2A3F80C24B3F854
:102F00000C2442F40042A3F80C2427E0B0F850202F
:102F1000024402EB0313B2B2A3F80424CEE700226A
:102F200022621E46D9E73E2E09D8720816F0010F1C
:102F300000D00132920292B2A3F80C240EE0720982
:102F400016F01F0F00D1013A6FEAC2626FEA5242D7
:102F500092B2A3F80C2401E0012B06D0B3B262892F
:102F600061692846FFF72FFEB5E6B5F850302B44CF
:102F7000227803EB0213B2B2A3F80C24EEE709782F
:102F800030F8212092B222F4E24222F0700242F4A0
:102F9000004242F0800220F82120B0F85020024484
:102FA000217802EB01129BB2A2F8043422896169F4
:102FB000FFF709FE8FE63E2E09D8720816F0010FC2
:102FC00000D00132920292B2A3F80C2414E07209EC
:102FD00016F01F0F00D1013A6FEAC2626FEA524247
:102FE00092B2A3F80C2407E0B0F85020024402EBA0
:102FF0000313B2B2A3F80C246289B3B26169284604
:10300000FFF7E1FD6378002B47D1227835F82230B5
:103010009BB223F4E04323F0700343F4004343F0F6
:10302000C00325F8223056E66ABBB0F850200244AF
:1030300002EB031376B9B3F8042492B222F4F842F7
:1030400092B2A3F80424B3F8042442F40042A3F893
:10305000042420E03E2E09D8720816F0010F00D09B
:103060000132920292B2A3F8042414E0720916F01D
:103070001F0F00D1013A6FEAC2626FEA524292B268
:10308000A3F8042407E0B0F85020024402EB031335
:10309000B2B2A3F804242289AFE7012B7FF41BAE60
:1030A000227835F822309BB223F4E04323F07003FA
:1030B00043F4404343F0800325F822300BE600221E
:1030C0008A611A46A3E53E2A09D8540812F0010F76
:1030D00000D00134A402A4B2A3F80C44AEE5540914
:1030E00012F01F0F00D1013C6FEAC4646FEA544430
:1030F000A4B2A3F80C44A1E5CB78022B3DD0012B60
:1031000040F00A818C690B699C4240F2C280E41A4B
:103110008C61B2B9B0F8502002440C7802EB041272
:10312000002B40F0BA80B2F80444A4B224F4F8446E
:10313000A4B2A2F80444B2F8044444F40044A2F84F
:1031400004444A78002A40F0DA80B0F85020024463
:103150000C7802EB0412002B40F0B880B2F80C346B
:103160009BB223F4F8439BB2A2F80C34B2F80C34AF
:1031700043F40043A2F80C3460E5AAB9B0F850302B
:1031800003440A7803EB02130A693ABBB3F8042438
:1031900092B222F4F84292B2A3F80424B3F80424C1
:1031A00042F40042A3F804244B78002B48D1B0F835
:1031B000503003440A7803EB02130A693ABBB3F8B0
:1031C0000C2492B222F4F84292B2A3F80C24B3F881
:1031D0000C2442F40042A3F80C2433E03E2A09D820
:1031E000540812F0010F00D00134A20292B2A3F8E9
:1031F0000424D9E7540912F01F0F00D1013C6FEAF3
:10320000C4626FEA524292B2A3F80424CCE73E2A89
:1032100009D8540812F0010F00D00134A20292B272
:10322000A3F80C240EE0540912F01F0F00D1013C4A
:103230006FEAC4626FEA524292B2A3F80C2401E032
:10324000012B1CD0CB69002B3FF4F8AC0A7830F886
:10325000223044F240042340A34202D0002B7FF4EA
:10326000EDAC30F822309BB223F4E04323F070033E
:1032700043F4004343F0C00320F82230DEE4B0F80A
:10328000503003440A7803EB02130A8AA3F80C2493
:10329000D8E700238B6123463BE73E2B09D85C0827
:1032A00013F0010F00D00134A402A4B2A2F8044428
:1032B00047E75C0913F01F0F00D1013C6FEAC464BB
:1032C0006FEA5444A4B2A2F804443AE73E2B09D86A
:1032D0005C0813F0010F00D00134A3029BB2A2F8E6
:1032E0000C34ABE45C0913F01F0F00D1013C6FEA12
:1032F000C4636FEA53439BB2A2F80C349EE4012AE4
:103300007FF49CACB0F8502002440C7802EB04121D
:103310009BB2A2F80C3491E40120A0E430B45D0823
:1033200000EB420202F5806245B132F8044BA4B2D0
:103330000C70240A4C700231013DF5E713F0010FC7
:1033400001D013880B7030BC7047000008B5074AE5
:10335000136843F010031360032000F0F3FC002017
:10336000FDF79CFFFDF75CFF002008BD0020024038
:10337000034A1168034B1B780B441360704700BF6E
:103380006C23002081000020014B1868704700BFAB
:103390006C23002038B50446FFF7F6FF0546B4F16C
:1033A000FF3F02D0044B1B781C44FFF7EDFF401B8E
:1033B000A042FAD338BD00BF8100002082B0084B84
:1033C0001B68084AA2FB03235B0A00FB03F0019081
:1033D00000BF019B5A1E0192002BF9D102B0704729
:1033E00088000020D34D6210002800F0F18170B5F4
:1033F00082B00446036813F0010F2CD0AA4B5B681F
:1034000003F00C03042B1DD0A74B5B6803F00C03E7
:10341000082B12D06368B3F5803F41D0002B55D103
:1034200003F1804303F504331A6822F480321A60F2
:103430001A6822F480221A6037E09B4B5B6813F411
:10344000803FE7D0984B1B6813F4003F03D06368BC
:10345000002B00F0BF81236813F0020F75D0924B50
:103460005B6813F00C0F5FD08F4B5B6803F00C03AD
:10347000082B54D02369002B00F089808B4B01224C
:103480001A60FFF781FF0546874B1B6813F0020F98
:1034900074D1FFF779FF401B0228F5D903209EE184
:1034A000814A136843F480331360636843B3FFF7C2
:1034B0006BFF05467C4B1B6813F4003FCBD1FFF735
:1034C00063FF401B6428F5D9032088E1B3F5A02FE2
:1034D00009D0754B1A6822F480321A601A6822F4F7
:1034E00080221A60E1E703F18043A3F53C331A68B8
:1034F00042F480221A601A6842F480321A60D4E7DB
:10350000FFF742FF0546684B1B6813F4003FA2D04B
:10351000FFF73AFF401B6428F5D903205FE1624BB7
:103520005B6813F4803FA5D15F4B1B6813F0020F5B
:1035300003D02369012B40F04F815B4A136823F0CD
:10354000F803616943EAC1031360236813F0080FAD
:1035500032D0A369002B5BD0554B01221A60FFF7D4
:1035600013FF0546504B5B6A13F0020F21D1FFF7A2
:103570000BFF401B0228F5D9032030E14A4A1368AB
:1035800023F0F803616943EAC1031360DDE7474BA9
:1035900000221A60FFF7F8FE0546434B1B6813F044
:1035A000020FD2D0FFF7F0FE401B0228F5D903200E
:1035B00015E10120FFF702FF236813F0040F00F06C
:1035C0009780394BDB6913F0805F33D1364BDA6972
:1035D00042F08052DA61DB6903F080530193019B72
:1035E0000125344B1B6813F4807F25D0E368012B41
:1035F00036D0002B4CD103F1804303F504331A6A13
:1036000022F001021A621A6A22F004021A622CE005
:10361000274B00221A60FFF7B7FE0546224B5B6A74
:1036200013F0020FC8D0FFF7AFFE401B0228F5D9F8
:103630000320D4E00025D4E71E4A136843F48073C6
:103640001360FFF7A1FE06461A4B1B6813F4807F38
:10365000CCD1FFF799FE801B6428F5D90320BEE08A
:10366000114A136A43F001031362E36873B3FFF76F
:103670008BFE06460C4B1B6A13F0020F37D1FFF787
:1036800083FE801B41F288339842F3D90320A6E0E1
:10369000052B11D0044B1A6A22F001021A621A6A31
:1036A00022F004021A62E0E70010024000004242E9
:1036B00080044242007000404D4B1A6A42F00402FE
:1036C0001A621A6A42F001021A62CEE7FFF75CFE44
:1036D0000646474B1B6A13F0020F08D0FFF754FE53
:1036E000801B41F288339842F3D9032077E0E5B993
:1036F000E369002B72D03E4A526802F00C02082A9D
:1037000056D0022B17D03B4B00221A60FFF73CFE2D
:103710000446374B1B6813F0007F47D0FFF734FE99
:10372000001B0228F5D9032059E0314AD36923F060
:103730008053D361DCE72F4B00221A60FFF724FE91
:1037400005462B4B1B6813F0007F06D0FFF71CFECD
:10375000401B0228F5D9032041E0236AB3F5803FDE
:103760001AD023494B6823F47413226A606A024317
:1037700013434B601F4B01221A60FFF705FE0446FE
:103780001B4B1B6813F0007F0ED1FFF7FDFD001BE4
:103790000228F5D9032022E0154A536823F40033A8
:1037A000A1680B435360DCE7002018E0002016E01E
:1037B000012B16D00E4B5B6803F48031226A9142D4
:1037C00011D103F47013626A93420ED1002006E017
:1037D00001207047012002E0012000E0002002B03B
:1037E00070BD0120FBE70120F9E70120F7E700BFEA
:1037F000001002406000424210B487B0164C94E8BA
:103800000F000DF1180C0CE90F00238AADF80430FD
:10381000124B5B6803F00C02082A03D0104807B073
:1038200010BC7047C3F38342624412F8102C13F4A7
:10383000803F0CD0094B5B68C3F34043634413F8EB
:10384000143C074800FB02F0B0FBF3F0E7E7054843
:1038500000FB02F0E3E700BF506B000800100240DD
:1038600000127A0000093D00002800F0A08070B529
:103870000446534B1B6803F007038B420BD2504A9C
:10388000136823F007030B431360136803F0070367
:103890008B4240F08E80236813F0020F17D013F094
:1038A000040F04D0474A536843F4E063536023682D
:1038B00013F0080F04D0434A536843F46053536035
:1038C000404A536823F0F003A068034353600D4659
:1038D000236813F0010F31D06368012B20D0022B35
:1038E00025D0384A126812F0020F64D035494A6870
:1038F00022F0030213434B60FFF746FD0646314BAF
:103900005B6803F00C036268B3EB820F16D0FFF71D
:103910003BFD801B41F288339842F0D9032045E0FB
:10392000284A126812F4003FE0D101203EE0254A07
:10393000126812F0007FD9D1012037E0204B1B68BC
:1039400003F00703AB420AD91D4A136823F00703AB
:103950002B431360136803F00703AB422DD1236898
:1039600013F0040F06D0174A536823F4E063E168AC
:103970000B435360236813F0080F07D0114A5368B4
:1039800023F46053216943EAC1035360FFF734FF16
:103990000C4B5B68C3F303130B4AD35CD8400B4B4F
:1039A00018600B4B1868FDF779FC002070BD0120F2
:1039B00070470120FAE70120F8E70120F6E700BF91
:1039C0000020024000100240E46B00088800002044
:1039D00084000020014B1868704700BF8800002059
:1039E00008B5FFF7F7FF044B5B68C3F30223034AF4
:1039F000D35CD84008BD00BF00100240F46B000843
:103A00000F2303600B4B5A6802F0030242605A68AE
:103A100002F0F00282605A6802F4E062C2605B6801
:103A2000DB0803F4E0630361034B1B6803F0070347
:103A30000B607047001002400020024070B582B059
:103A40000446036813F0010F34D03E4BDB6913F0DA
:103A5000805F48D13B4BDA6942F08052DA61DB6922
:103A600003F080530193019B0125374B1B6813F42E
:103A7000807F3AD0334B1B6A13F4407311D06268D5
:103A800002F440729A420CD02E4A136A23F440701A
:103A90002E4901260E6000260E60106213F0010F01
:103AA00037D1284A136A23F4407361680B431362C9
:103AB000002D3FD1236813F0020F06D0214A53682E
:103AC00023F44043A1680B435360236813F0100FA5
:103AD00035D01C4A536823F48003E1680B435360DC
:103AE000002002B070BD0025BFE7174A136843F4F9
:103AF00080731360FFF748FC0646134B1B6813F4F2
:103B0000807FB7D1FFF740FC801B6428F5D90320E4
:103B1000E7E7FFF739FC06460A4B1B6A13F0020F72
:103B2000BFD1FFF731FC801B41F288339842F3D9B3
:103B30000320D6E7D36923F08053D361BAE700208E
:103B4000CFE700BF00100240007000404004424236
:103B5000F0B482B000263546A0E0002A58D0012AF1
:103B600010D1CE680EE06A4FBA4251D048D9694FA1
:103B7000BA424DD007F58037BA4249D0A7F5801731
:103B8000BA4245D0FF2B57D88446FF2B57D8AC00FC
:103B9000DCF800200F27A74022EA070206FA04F407
:103BA0002243CCF800204A6812F0805F75D05A4A50
:103BB000946944F001049461926902F00102019257
:103BC000019AAC08A71C554A52F8272005F00307B4
:103BD000BF004FF00F0C0CFA07FC22EA0C0C504A05
:103BE000904232D002F58062904271D002F580623C
:103BF00090426FD002F58062904224D0042225E0EA
:103C0000A7F58017BA4203D007F58037BA42B9D179
:103C10008A687AB1012A08D044610826B2E7CE68E2
:103C20000836AFE7CE680C36ACE704610826A9E792
:103C30000026A7E70426A5E700F1040CA5E7A5F1F7
:103C40000804A400A4E7032200E00022BA4042EAEC
:103C50000C020234314F47F824204A6812F4803FA6
:103C60003AD0304C22681A4322604A6812F4003F6E
:103C700038D02C4C62681A4362604A6812F4801F84
:103C800036D0284CA2681A43A2604A6812F4001F7A
:103C900034D0244CE2681343E36001350B6833FAF7
:103CA00005F231D00124AC4023409C42F5D14A6852
:103CB000122AB7D03FF657AF022AB0D07FF64DAFE9
:103CC000032AB5D0112A7FF45DAFCE68043659E7D8
:103CD0000122BBE70222B9E7124C226822EA030262
:103CE0002260C2E70F4C626822EA03026260C4E706
:103CF0000C4CA26822EA0302A260C6E7094CE26803
:103D000022EA0303E360C8E702B0F0BC704700BFDB
:103D1000000021100000311000100240000001409E
:103D200000080140000401408368194201D00120CD
:103D30007047002070470AB10161704709040161B2
:103D400070470000074AD36823F4E0631B041B0C90
:103D5000000200F4E060184340F0BF6040F400301F
:103D6000D060704700ED00E030B4174BDB68C3F360
:103D70000223C3F10704042C28BF04241D1D062DB3
:103D800001D9033B00E000234FF0FF3505FA04F4AE
:103D900021EA0401994005FA03F322EA03031943D7
:103DA000002809DB0901C9B200F1604000F561405B
:103DB00080F8001330BC704700F00F000901C9B251
:103DC000024B1954F6E700BF00ED00E014ED00E0EF
:103DD000002807DB00F01F02400901239340024A3C
:103DE00042F82030704700BF00E100E010B4036AE1
:103DF000046A24F001040462846924F0F00444EAB3
:103E0000021223F00A030B438261036210BC704765
:103E100010B4036A23F0100303628469036A24F474
:103E2000704444EA023223F0A00343EA01138261A2
:103E3000036210BC7047836823F07003194341F09C
:103E4000070181607047000090F83D30DBB2012B24
:103E500022D1022380F83D300368114A934210D0EA
:103E6000B3F1804F0DD0A2F59432934209D002F500
:103E70008062934205D01A6842F001021A60002065
:103E800070479A6802F00702062A07D01A6842F0C3
:103E900001021A600020704701207047002070471F
:103EA000002C014090F83D30DBB2012B27D10223DA
:103EB00080F83D300268D36843F00103D3600368A3
:103EC000114A934210D0B3F1804F0DD0A2F5943235
:103ED000934209D002F58062934205D01A6842F0FD
:103EE00001021A60002070479A6802F00702062A51
:103EF00007D01A6842F001021A60002070470120C2
:103F000070470020704700BF002C01407047704789
:103F10007047704710B5044603681A6912F0020F23
:103F200011D0DA6812F0020F0DD06FF002021A61A0
:103F30000123037703689B6913F0030F70D0FFF729
:103F4000E6FF0023237723681A6912F0040F12D0CA
:103F5000DA6812F0040F0ED06FF004021A61022327
:103F6000237723689B6913F4407F5FD02046FFF7D7
:103F7000CEFF0023237723681A6912F0080F12D0AE
:103F8000DA6812F0080F0ED06FF008021A610423ED
:103F900023772368DB6913F0030F4ED02046FFF729
:103FA000B6FF0023237723681A6912F0100F12D08E
:103FB000DA6812F0100F0ED06FF010021A610823A9
:103FC00023772368DB6913F4407F3DD02046FFF759
:103FD0009EFF0023237723681A6912F0010F03D094
:103FE000DA6812F0010F36D123681A6912F0800FD7
:103FF00003D0DA6812F0800F34D123681A6912F006
:10400000400F03D0DA6812F0400F32D123681A69EA
:1040100012F0200F03D0DA6812F0200F30D110BD5B
:10402000FFF774FF2046FFF773FF8AE72046FFF78C
:104030006DFF2046FFF76CFF9BE72046FFF766FF0A
:104040002046FFF765FFACE72046FFF75FFF2046FD
:10405000FFF75EFFBDE76FF001021A612046FCF733
:10406000FDFEC1E76FF080021A61204600F025F9DD
:10407000C3E76FF040021A612046FFF74AFFC5E729
:104080006FF020021A61204600F016F9C7E7000021
:1040900003681B4A90420AD0B0F1804F07D0A2F5C6
:1040A0009432904203D002F58062904203D123F013
:1040B00070034A681343124A90420AD0B0F1804F0D
:1040C00007D0A2F59432904203D002F5806290426C
:1040D00003D123F44073CA68134323F080034A6971
:1040E000134303608B68C3620B688362044B98427E
:1040F00002D00123436170470B690363F9E700BFF6
:10410000002C014040B310B5044690F83D30F3B1A7
:10411000022384F83D30214651F8040BFFF7B8FF25
:10412000012384F8463084F83E3084F83F3084F828
:10413000403084F8413084F8423084F8433084F8C9
:10414000443084F8453084F83D30002010BD80F8BC
:104150003C30FDF78FF8DBE70120704710B484682E
:1041600024F47F4442EA03230B432343836010BCBF
:10417000704790F83C30012B67D010B504460123FE
:1041800080F83C30022380F83D300268936823F4C5
:104190007F4323F0770393600B68402B4BD013D9F8
:1041A000602B3ED025D9702B2FD0B3F5005F19D1ED
:1041B000CB684A6889680068FFF7D0FF2268936877
:1041C00043F4804393600DE0102B04D008D9202BDA
:1041D00001D0302B06D119462068FFF72CFE01E0F4
:1041E000002BF8D0012384F83D30002084F83C00F7
:1041F00010BD502BF6D1CA6849680068FFF7F6FD7C
:1042000050212068FFF717FEECE7CB684A68896801
:104210000068FFF7A3FF2268936843F07703936079
:10422000E0E7CA6849680068FFF7F2FD602120688E
:10423000FFF701FED6E7CA6849680068FFF7D6FDB8
:1042400040212068FFF7F7FDCCE70220704700000F
:1042500090F83C30012B2BD030B4012380F83C3057
:10426000022380F83D3003685C689D6824F0700488
:104270000A6822435A6003680E4A93420AD0B3F197
:10428000804F07D0A2F59432934203D002F58062AA
:10429000934204D125F080054A6815439D600123AF
:1042A00080F83D30002380F83C30184630BC704721
:1042B00002207047002C014070477047704700F1A2
:1042C000080343604FF0FF328260C3600361002344
:1042D0000360704700230361704743684B609A682E
:1042E0008A60516099600861036801330360704718
:1042F00030B40D68B5F1FF3F02D000F1080202E0D2
:10430000026904E01A4653681C68AC42FAD9536843
:104310004B6099608A6051600861036801330360F3
:1043200030BC70470369416882688A6041685160A7
:104330005A68824206D0002202611A68013A1A6065
:104340001868704782685A60F5E710B5044601F0B6
:10435000B1FCA26BE36B9A4204D0002401F0CCFCC8
:10436000204610BD0124F9E710B5044601F0A2FC77
:10437000A36B23B9012401F0BFFC204610BD00242B
:10438000F9E770B504461646856B026C5AB90368A6
:104390001BB100200135A56370BD406800F0C0FF6F
:1043A00000236360F6E76EB9806802F0AFFB226C11
:1043B000A3681344A3606268934219D32368A3607F
:1043C0000020E7E7C06802F0A1FB226C5242E368DC
:1043D0001344E36021688B4202D263681A44E260AE
:1043E000022E01D00020D5E725B1013D0020D1E704
:1043F0000020CFE70020CDE7026C72B110B5C36892
:104400001344C3604468A34201D30368C3600C46ED
:10441000C168204602F07AFB10BD704738B50546EA
:1044200001F048FC95F8454064B203E000F062FFFB
:10443000013C64B2002C08DD6B6A33B105F1240045
:1044400000F0C4FE0028F3D0F0E7FF2385F84530E4
:1044500001F052FC01F02EFC95F8444064B203E0F8
:1044600000F048FF013C64B2002C08DD2B6933B139
:1044700005F1100000F0AAFE0028F3D0F0E7FF23BA
:1044800085F8443001F038FC38BD000038B5E0B1A3
:1044900004460D4601F00EFC2168E26B236C03FB21
:1044A000021060600020A063A160013A02FB0313C8
:1044B000E360FF2384F8443084F84530EDB9236984
:1044C00063B901F019FC012038BD4FF0500383F3AC
:1044D0001188BFF36F8FBFF34F8FFEE704F1100019
:1044E00000F074FE0028ECD0084B4FF080521A60A8
:1044F000BFF34F8FBFF36F8FE3E704F11000FFF7B7
:10450000DEFE04F12400FFF7DAFEDAE704ED00E056
:1045100038B51D46049C0B4649B92460E06323640A
:1045200001212046FFF7B2FF84F84C5038BD2260CD
:10453000F4E740B94FF0500383F31188BFF36F8F56
:10454000BFF34F8FFEE710B584B0044653B192B16C
:1045500089B94FF0500383F31188BFF36F8FBFF316
:104560004F8FFEE74FF0500383F31188BFF36F8F37
:10457000BFF34F8FFEE76AB1502003900398502895
:1045800013D04FF0500383F31188BFF36F8FBFF345
:104590004F8FFEE70029EFD04FF0500383F31188CF
:1045A000BFF36F8FBFF34F8FFEE720461C460123FA
:1045B00084F8463000949DF81830FFF7A9FF204694
:1045C00004B010BDF0B585B0019278B10446B1B128
:1045D000022B20D1E26B012A1DD04FF0500383F350
:1045E0001188BFF36F8FBFF34F8FFEE74FF050037B
:1045F00083F31188BFF36F8FBFF34F8FFEE7026C19
:10460000002AE5D04FF0500383F31188BFF36F8F7A
:10461000BFF34F8FFEE71E460F4600F071FE50B904
:10462000019B53B14FF0500383F31188BFF36F8F99
:10463000BFF34F8FFEE700253BE0002539E032460F
:1046400039462046FFF79DFE636A6BB938B13C4B93
:104650004FF080521A60BFF34F8FBFF36F8F01F09E
:104660004BFB012005B0F0BD04F1240000F0AEFDCD
:104670000028F4D0324B4FF080521A60BFF34F8FB6
:10468000BFF36F8FEBE701F037FB0020EAE702A8EA
:1046900000F0E2FD012519E0002384F8443021E018
:1046A000002384F8453023E02046FFF7B7FE00F0F2
:1046B00069FC01F0FFFAA26BE36B9A42BFD3022EB2
:1046C000BDD0019B002BDED0002DE0D001F014FB0B
:1046D00000F0BEFB01F0EEFA94F844305BB2B3F1A7
:1046E000FF3FD9D094F845305BB2B3F1FF3FD7D04C
:1046F00001F002FB01A902A800F0BAFDC8B92046EA
:10470000FFF723FE0028CFD0019904F1100000F03C
:1047100029FD2046FFF782FE00F034FC0028C8D1B6
:10472000074B4FF080521A60BFF34F8FBFF36F8F6C
:10473000BFE72046FFF772FE00F024FC002091E75F
:1047400004ED00E02DE9F84378B10446B1B1022B45
:1047500020D1E06B01281DD04FF0500383F3118866
:10476000BFF36F8FBFF34F8FFEE74FF0500383F31C
:104770001188BFF36F8FBFF34F8FFEE7006C0028E7
:10478000E5D04FF0500383F31188BFF36F8FBFF371
:104790004F8FFEE71F469046894601F079FBEFF305
:1047A00011864FF0500383F31188BFF36F8FBFF36F
:1047B0004F8FA26BE36B9A4206D3022F04D00020E6
:1047C00086F31188BDE8F88394F845506DB23A46F7
:1047D00049462046FFF7D5FDB5F1FF3F05D06B1CDC
:1047E0005BB284F845300120EAE7636A0BB9012027
:1047F000E6E704F1240000F0E9FC30B1B8F1000F65
:1048000005D00120C8F80000DAE70120D8E7012030
:10481000D6E70000F0B585B0019280B10446B9B189
:104820000F4600F06DFDF8B9019BFBB14FF050034E
:1048300083F31188BFF36F8FBFF34F8FFEE74FF005
:10484000500383F31188BFF36F8FBFF34F8FFEE7E1
:10485000036C002BE4D04FF0500383F31188BFF3B7
:104860006F8FBFF34F8FFEE700263EE000263CE04F
:1048700039462046FFF7C0FD013DA563236923B9F2
:1048800001F03AFA012005B0F0BD04F1100000F08B
:104890009DFC0028F4D0354B4FF080521A60BFF3D6
:1048A0004F8FBFF36F8FEBE701F026FA0020EAE7A6
:1048B00002A800F0D1FC012621E0002384F8443056
:1048C00029E0002384F845302BE02046FFF7A6FDC1
:1048D00000F058FB09E02046FFF7A0FD00F052FB76
:1048E0002046FFF741FD00283DD101F0E3F9A56B1B
:1048F000002DBDD1019B002BD6D0002ED8D001F0C9
:10490000FBF900F0A5FA01F0D5F994F844305BB258
:10491000B3F1FF3FD1D094F845305BB2B3F1FF3F24
:10492000CFD001F0E9F901A902A800F0A1FC00280C
:10493000D1D12046FFF718FD0028C6D0019904F117
:10494000240000F00FFC2046FFF768FD00F01AFB82
:104950000028CAD1054B4FF080521A60BFF34F8F29
:10496000BFF36F8FC1E700208DE700BF04ED00E0CB
:104970000023072B0CD8074A52F833200AB1013321
:10498000F7E7044A42F8331002EBC303586070475C
:10499000704700BF7023002070B504460D461646D0
:1049A00001F088F994F844305BB2B3F1FF3F0DD0C9
:1049B00094F845305BB2B3F1FF3F0BD001F09CF9A6
:1049C000A36B5BB12046FFF729FD70BD002384F87F
:1049D0004430EDE7002384F84530EFE732462946BE
:1049E00004F1240000F0D6FBECE70000084B1B6844
:1049F0001B6823B9074B4FF0FF321A607047044B16
:104A00001B68DB68DB685A68024B1A60704700BF9E
:104A1000D40100207C0600202DE9F04781460D4698
:104A200017469A46089EDDF824800A9C9200A5212C
:104A3000206B02F079F8236B07F18042013A03EB17
:104A4000820727F0070700230F2B06D8EA5CE1183E
:104A500081F834200AB10133F6E7002384F84330AB
:104A6000372E00D93726E662E66400252565201D2D
:104A7000FFF730FC04F11800FFF72CFC2461C6F1AD
:104A80003806A6616462656584F858505246494606
:104A9000384601F0E9F82060B8F1000F01D0C8F8FD
:104AA0000040BDE8F087000038B50024372C08D856
:104AB00004EB840293000E481844FFF700FC013415
:104AC000F4E70C4D2846FFF7FAFB0B4C2046FFF7A6
:104AD000F6FB0A48FFF7F3FB0948FFF7F0FB09482C
:104AE000FFF7EDFB084B1D60084B1C6038BD00BF95
:104AF000DC01002054060020680600208406002007
:104B0000B00600209C060020D4010020D80100201F
:104B100010B5044601F0CEF8214A13680133136042
:104B2000204B1B685BB1204B1B686BB91D4B1B688E
:104B3000DA6AE36A9A4207D81A4B1C6004E0194B00
:104B40001C601368012B27D0184A136801331360C7
:104B50006364E36A164A1268934201D9144A1360E7
:104B600003EB83039A00211D12481044FFF7B5FBA5
:104B700001F0C2F80C4B1B686BB10A4B1B68DA6A78
:104B8000E36A9A4207D20C4B4FF080521A60BFF38F
:104B90004F8FBFF36F8F10BDFFF786FFD4E700BFC5
:104BA0003C060020D0010020980600204C06002082
:104BB00050060020DC01002004ED00E010B50446A2
:104BC00090F8593063B1012B11D0022B0ED04FF069
:104BD000500383F31188BFF36F8FBFF34F8FFEE74E
:104BE000006B00F0D9FF204600F0D6FF10BD00F0AA
:104BF000D3FFFBE70F4B1B68D3B110B501F05AF898
:104C00000D4BDB68DC68201DFFF78CFB0B4A13683B
:104C1000013B1360074A1368013B136001F06CF815
:104C20002046FFF7CBFF034B1B68002BE6D110BDDE
:104C3000704700BF40060020B00600203C06002060
:104C400008B5FFF7D7FF064B1B68012BF9D9054BB9
:104C50004FF080521A60BFF34F8FBFF36F8FF0E7B2
:104C6000DC01002004ED00E070B504460E46174B51
:104C70001D68174B18680430FFF754FBB4F1FF3F71
:104C80000DD02C44124B1B685C60A54210D9114B0F
:104C900018680F4B19680431FFF72AFB70BD002E0E
:104CA000EFD00B4B196804310B48FFF716FBF5E703
:104CB0000A4B1868064B19680431FFF719FB084BBB
:104CC0001B68A342EAD9064B1C60E7E7C406002034
:104CD000D0010020D80100209C060020D401002033
:104CE0007C06002070B586B00B9D0C9C75B1B4B1EC
:104CF0005C260496049E5C2E1AD04FF0500383F37A
:104D00001188BFF36F8FBFF34F8FFEE74FF0500353
:104D100083F31188BFF36F8FBFF34F8FFEE74FF020
:104D2000500383F31188BFF36F8FBFF34F8FFEE7FC
:104D30002563022584F8595000250395029405AD9A
:104D400001950A9D0095FFF767FE2046FFF7E0FEFC
:104D5000059806B070BD2DE9F04385B0074688463A
:104D600015469946900000F093FEF8B106465C2087
:104D700000F08EFE0446A8B10663E4B1002384F877
:104D80005930039302940D9B01930C9B00934B4667
:104D90002A4641463846FFF73FFE2046FFF7B8FE59
:104DA000012005E0304600F0F7FEE6E74FF0FF3067
:104DB00005B0BDE8F0834FF0FF30F9E710B588B0DB
:104DC00000240594069407AA06A905A800F0EAFDA8
:104DD000059B0293069B019300942346079A17496B
:104DE0001748FFF77FFF40B100F04EFB012806D0C7
:104DF000B0F1FF3F18D008B010BD0020F6E74FF02B
:104E0000500383F31188BFF36F8FBFF34F8F0D4BA8
:104E10004FF0FF321A600C4B01221A600B4B00223C
:104E20001A6000F0D9FFE6E74FF0500383F31188D2
:104E3000BFF36F8FBFF34F8FFEE700BFFC6B00081F
:104E4000414C00087C06002098060020C406002083
:104E5000024A136801331360704700BF4806002000
:104E6000014B1868704700BFC4060020F8B53A4BE4
:104E70001B68002B65D1394B1D6801351D60C5B914
:104E8000374B1B681B6843B14FF0500383F3118805
:104E9000BFF36F8FBFF34F8FFEE7314A1168314B7D
:104EA000186810601960304A136801331360FFF707
:104EB0009DFD2E4B1B68AB420CD900242C4B1B686C
:104EC000DB6A03EB83039A002A4B9B58012B3DD9E5
:104ED00001243BE0002416E0244B4FF0FF321A601F
:104EE000ECE7224A1360E9E703EB83039A003946B3
:104EF00020481044FFF7F1F9F26A1D4B1B68DB6A8A
:104F00009A4200D30124164B1B681B68002BE3D088
:104F1000134B1B68DB68DE6873689D42E1D3371D65
:104F20003846FFF7FFF9B36A1BB106F11800FFF727
:104F3000F9F9F36A104A12689342D5D90E4A136000
:104F4000D2E70E4A13680133136000240C4B1B6830
:104F500003B101242046F8BD48060020C406002005
:104F6000D4010020D8010020800600207C0600200B
:104F7000D0010020DC010020500600204406002063
:104F8000C806002038B5354B1B6843B94FF05003B5
:104F900083F31188BFF36F8FBFF34F8FFEE700F0ED
:104FA00089FE2E4B1A68013A1A601B68002B4DD1FE
:104FB0002B4B1B680BB9002449E00024294B1B68CC
:104FC0001BB3284BDB68DC6804F11800FFF7AAF973
:104FD000251D2846FFF7A6F9E36A234A1268934283
:104FE00001D9214A136003EB83039A0029461F4825
:104FF0001044FFF772F9E26A1D4B1B68DB6A9A42A4
:10500000DCD31C4B01221A60D8E70CB1FFF7EEFC91
:10501000194B1C6874B9174B1B68E3B1174B4FF061
:1050200080521A60BFF34F8FBFF36F8F01240EE0E1
:10503000013C07D0FFF71AFF0028F9D00D4B0122E1
:105040001A60F5E70C4B00221A60E4E7002400F038
:1050500053FE204638BD0024F9E700BF4806002073
:105060003C0600208406002050060020DC010020C1
:10507000D0010020C80600204406002004ED00E016
:1050800010B5A8B104460F4B1B6843B14FF0500355
:1050900083F31188BFF36F8FBFF34F8FFEE7FFF7E6
:1050A000D7FE00212046FFF7DFFDFFF76BFF38B981
:1050B000054B4FF080521A60BFF34F8FBFF36F8FD5
:1050C00010BD00BF4806002004ED00E0204B1B6827
:1050D0001BB1204B01221A6070471E4B00221A6040
:1050E0001D4B1B6803EB83018A001C498A585AB97F
:1050F0000BB1013BF6E74FF0500383F31188BFF388
:105100006F8FBFF34F8FFEE710B408469A00D41894
:10511000A10001444C6864684C601A449100083155
:10512000084484420CD003EB830291000B4A0A44EA
:105130005268D1680A4A1160074A136010BC704770
:10514000606803EB83029100044A0A445060EAE776
:1051500048060020C806002050060020DC01002080
:10516000D001002058B110B50C46094B1968183110
:10517000FFF7BEF801212046FFF776FD10BD4FF086
:10518000500383F31188BFF36F8FBFF34F8FFEE798
:10519000D001002038B570B10C4615460A4A116896
:1051A0001831FFF79AF80DB14FF0FF342946204629
:1051B000FFF75AFD38BD4FF0500383F31188BFF35A
:1051C0006F8FBFF34F8FFEE7D001002038B5C36863
:1051D000DC6824B304F118052846FFF7A3F8184B40
:1051E0001B682BBB251D2846FFF79CF8E36A154A70
:1051F0001268934201D9134A136003EB83039A00A8
:10520000294611481044FFF768F8E26A0F4B1B6803
:10521000DB6A9A4211D901200D4B18600EE04FF065
:10522000500383F31188BFF36F8FBFF34F8FFEE7F7
:1052300029460848FFF751F8E7E7002038BD00BFCE
:105240004806002050060020DC010020D00100208C
:10525000C806002084060020034B1B680360034B34
:105260001B684360704700BF80060020C406002012
:10527000F8B5C8B1054601B30C4600F01BFD1B4B49
:1052800019686B68C81A2268B2F1FF3F26D02F68F0
:10529000174E3668B74201D08B4224D9824215D8C6
:1052A0000023236001241AE04FF0500383F3118898
:1052B000BFF36F8FBFF34F8FFEE74FF0500383F3C1
:1052C0001188BFF36F8FBFF34F8FFEE75B1A134454
:1052D00023602846FFF7C0FF002400E0002400F010
:1052E0000BFD2046F8BD0124F9E700BFC4060020ED
:1052F00080060020014B01221A607047C80600207A
:10530000054B1B6833B1054B1B680BB10020704780
:1053100002207047012070479806002048060020B0
:1053200000283BD038B504461E4A1268824208D095
:105330004FF0500383F31188BFF36F8FBFF34F8F8C
:10534000FEE7026D42B94FF0500383F31188BFF3BB
:105350006F8FBFF34F8FFEE7013A0265C06AE16CC1
:1053600088421DD00AB1002038BD251D2846FEF711
:10537000D9FFE36CE362C3F13802A2610A4A126802
:10538000934201D9084A136003EB83039A0029462C
:1053900006481044FEF7A1FF0120E5E70020704712
:1053A0000020E1E7D001002050060020DC010020B1
:1053B000064B1A681368B3FA83F35B09036013B9E9
:1053C000D368186870470020704700BFCC060020E3
:1053D00008B54160006191420CD8D21A83699A42A3
:1053E00001D3012008BD011D094B1868FEF780FF9D
:1053F0000020F7E79A4201D2994206D2011D054BDF
:105400001868FEF775FF0020ECE70120EAE700BF0F
:10541000D0060020CC06002030B583B000F04AFC56
:10542000114B1B681BB100F067FC03B030BD0F4D82
:105430002846FEF744FF0E4C2046FEF740FF0D4B7A
:105440001D600D4B1C60002300930C4B0C4A102177
:105450000A20FFF76EF8044B18600028E3D00949D2
:10546000FFF786FADFE700BFF0070020740700208F
:1054700088070020CC060020D0060020A0070020CE
:10548000D4060020046C000810B588B0FFF7C4FFF4
:10549000124B1B68CBB100240594069407AA06A9F9
:1054A00005A800F08BFA059B0293069B019302234B
:1054B00000932346079A0A490A48FFF713FC0A4B50
:1054C000186010B1012008B010BD4FF0500383F3F5
:1054D0001188BFF36F8FBFF34F8FFEE7F0070020F7
:1054E0000C6C0008CD570008F4070020C0B130B59F
:1054F00085B015460446174A106840B31A46009115
:105500000195029405291CDCFFF7FAFE022810D051
:1055100000231A4669460F480068FFF753F814E065
:105520004FF0500383F31188BFF36F8FBFF34F8F9A
:10553000FEE70023089A694606480068FFF742F82C
:1055400003E000236946FFF7FDF805B030BD0020F9
:10555000FBE700BFF007002070B582B01A4B1B6854
:105560001A6852B3DB681E68DC68251D2846FEF702
:10557000D9FE636A20469847E369012BEED1A369FF
:1055800033449E4207D26360246129460E4B18685B
:10559000FEF7AEFEE2E7002100910B4632462046C0
:1055A000FFF7A4FF0028D9D14FF0500383F31188EF
:1055B000BFF36F8FBFF34F8FFEE7044A10680249B5
:1055C0000860136002B070BDCC060020D006002039
:1055D00038B50546FFF744FC0446074B1B68834279
:1055E00005D800232B60044B1C60204638BDFFF714
:1055F000B3FF01232B60F6E79C07002070B582B053
:1056000005460E46144B1B68DB68DC68201DFEF760
:1056100089FEE369012B04D0636A2046984702B0F3
:1056200070BDA1692B46324629442046FFF7D0FEC3
:105630000028F1D0002100910B462A462046FFF7B2
:1056400055FF0028E8D14FF0500383F31188BFF3D2
:105650006F8FBFF34F8FFEE7CC06002070B582B08E
:1056600006460C46FFF7F4FB01A8FFF7B1FF019BCC
:105670001BBB05460CB9B04218D22CB1114B1B68AC
:105680001C68B4FA84F464092246711B0E4B186836
:10569000FFF782F9FFF776FC88B90C4B4FF0805288
:1056A0001A60BFF34F8FBFF36F8F08E0FFF76AFCFC
:1056B00029463046FFF7A2FF01E0FFF763FC02B086
:1056C00070BD00BFD0060020F007002004ED00E010
:1056D00030B589B006E007990698059B9847049B6A
:1056E000002B0BDA002204A9374B1868FFF792F859
:1056F000002866D0049B002BF1DAECE7069C636976
:1057000013B1201DFEF70EFE03A8FFF761FF049BF7
:10571000092BE7D801A252F823F000BF4557000833
:105720004557000845570008E55600088D57000802
:10573000B35700084557000845570008E5560008CC
:105740008D5700080599A5690B4602462944204655
:10575000FFF73EFE0028C5D0636A20469847E369FC
:10576000012BBFD1A269002100910B46059802448C
:105770002046FFF7BBFE0028B4D14FF0500383F35F
:105780001188BFF36F8FBFF34F8FFEE70599A161BB
:1057900031B10346024601442046FFF719FEA1E756
:1057A0004FF0500383F31188BFF36F8FBFF34F8F18
:1057B000FEE794F82C30002B94D1204600F0ECF951
:1057C00090E709B030BD00BFF007002000B583B0FE
:1057D00001A8FFF7EDFD0199FFF740FFFFF778FF04
:1057E000F6E70000EFF305839BB9EFF310839BB955
:1057F0000C4B1B68022B05D08BB90A4B01221A6097
:1058000000207047EFF31182002AF5D06FF00500F9
:1058100070476FF0050070476FF0050070474FF05C
:10582000FF307047540A002008B5EFF30583B3B981
:10583000EFF31083B3B90E4B1B68022B08D0012B7A
:1058400013D10B4B02221A60FFF7B8FA002008BDF3
:10585000EFF31182002AF2D06FF00500F7E76FF046
:105860000500F4E76FF00500F1E74FF0FF30EEE7D9
:10587000540A0020F0B587B000240494EFF30584A7
:10588000002C43D1EFF31083002B3FD1334B1B6827
:10589000022B21D0002839D000238DF8173062B3B5
:1058A0001668EEB1946904B91824631E372B51D8D9
:1058B000536813F0010F4FD15569A5B14FEA950C0C
:1058C00093682BB1D7685B2F02D9176907B105BB65
:1058D00063B14FF0FF3516E0EFF31183B3B9D9E7A9
:1058E0000DF11706DEE74FF0800CE9E7D36893B9B6
:1058F00013699BB14FF0FF3505E0002518244FF0E8
:10590000800C0DF11706012D0AD0ADB1049807B037
:10591000F0BD0125F7E74FF0FF35F4E70025F2E78A
:10592000136992680292019300940B4662463146D5
:10593000FFF7D8F90490E9E704AA019200940B4616
:105940001FFA8CF23146FFF706FA0128DED0002359
:105950000493DBE70020DAE70020D8E7540A0020B0
:1059600008B5EFF30583A3B9EFF31083A3B90C4B8C
:105970001B68022B02D040B9002008BDEFF3118351
:10598000002BF8D06FF00500F7E7FFF779FB002058
:10599000F3E76FF00500F0E76FF00500EDE700BFFB
:1059A000540A0020034B0360034B0B6080231360F9
:1059B000704700BFF8090020F8070020034B036080
:1059C000034B0B604FF4807313607047580E002038
:1059D000580A0020124A12F0070F07D0D11D21F0FB
:1059E0000701C1F5406313440A4601E04FF44063E8
:1059F0000C480260002141601344083B23F0070378
:105A00000948036059601960991A51601360074B87
:105A10001960074B1960074B4FF000421A6070473E
:105A2000B80E0020C41A0020B40E0020C01A0020B6
:105A3000BC1A0020B81A002010B4134A00E01A461D
:105A400013688342FBD351685418844209D04168DB
:105A50004418A3420AD00360904200D0106010BCEA
:105A600070474068014451601046F0E7074C2468D5
:105A7000A34206D05B681944416013681B68036049
:105A8000EAE70460E8E700BFC41A0020B40E002073
:105A900070B50446FFF7DCF93A4B1B68BBB13A4BD3
:105AA0001B681C4256D1ACB1083414F0070F11D05A
:105AB00024F00704083404F007035BB14FF05003EF
:105AC00083F31188BFF36F8FBFF34F8FFEE7FFF7AC
:105AD00081FFE4E7002C3FD02C4B1B68A3424AD344
